{
  "_format": "hh-sol-artifact-1",
  "contractName": "MyEpicNFT",
  "sourceName": "contracts/MyEpicNFT.sol",
  "abi": [
    {
      "inputs": [],
      "stateMutability": "nonpayable",
      "type": "constructor"
    },
    {
      "anonymous": false,
      "inputs": [
        {
          "indexed": true,
          "internalType": "address",
          "name": "owner",
          "type": "address"
        },
        {
          "indexed": true,
          "internalType": "address",
          "name": "approved",
          "type": "address"
        },
        {
          "indexed": true,
          "internalType": "uint256",
          "name": "tokenId",
          "type": "uint256"
        }
      ],
      "name": "Approval",
      "type": "event"
    },
    {
      "anonymous": false,
      "inputs": [
        {
          "indexed": true,
          "internalType": "address",
          "name": "owner",
          "type": "address"
        },
        {
          "indexed": true,
          "internalType": "address",
          "name": "operator",
          "type": "address"
        },
        {
          "indexed": false,
          "internalType": "bool",
          "name": "approved",
          "type": "bool"
        }
      ],
      "name": "ApprovalForAll",
      "type": "event"
    },
    {
      "anonymous": false,
      "inputs": [
        {
          "indexed": false,
          "internalType": "address",
          "name": "sender",
          "type": "address"
        },
        {
          "indexed": false,
          "internalType": "uint256",
          "name": "tokenId",
          "type": "uint256"
        }
      ],
      "name": "NewEpicNFTMinted",
      "type": "event"
    },
    {
      "anonymous": false,
      "inputs": [
        {
          "indexed": true,
          "internalType": "address",
          "name": "from",
          "type": "address"
        },
        {
          "indexed": true,
          "internalType": "address",
          "name": "to",
          "type": "address"
        },
        {
          "indexed": true,
          "internalType": "uint256",
          "name": "tokenId",
          "type": "uint256"
        }
      ],
      "name": "Transfer",
      "type": "event"
    },
    {
      "inputs": [
        {
          "internalType": "address",
          "name": "to",
          "type": "address"
        },
        {
          "internalType": "uint256",
          "name": "tokenId",
          "type": "uint256"
        }
      ],
      "name": "approve",
      "outputs": [],
      "stateMutability": "nonpayable",
      "type": "function"
    },
    {
      "inputs": [
        {
          "internalType": "address",
          "name": "owner",
          "type": "address"
        }
      ],
      "name": "balanceOf",
      "outputs": [
        {
          "internalType": "uint256",
          "name": "",
          "type": "uint256"
        }
      ],
      "stateMutability": "view",
      "type": "function"
    },
    {
      "inputs": [
        {
          "internalType": "uint256",
          "name": "tokenId",
          "type": "uint256"
        }
      ],
      "name": "claim",
      "outputs": [],
      "stateMutability": "nonpayable",
      "type": "function"
    },
    {
      "inputs": [
        {
          "internalType": "uint256",
          "name": "tokenId",
          "type": "uint256"
        }
      ],
      "name": "getApproved",
      "outputs": [
        {
          "internalType": "address",
          "name": "",
          "type": "address"
        }
      ],
      "stateMutability": "view",
      "type": "function"
    },
    {
      "inputs": [
        {
          "internalType": "uint256",
          "name": "tokenId",
          "type": "uint256"
        }
      ],
      "name": "getMutations",
      "outputs": [
        {
          "internalType": "string",
          "name": "",
          "type": "string"
        }
      ],
      "stateMutability": "view",
      "type": "function"
    },
    {
      "inputs": [
        {
          "internalType": "uint256",
          "name": "tokenId",
          "type": "uint256"
        }
      ],
      "name": "getNegativeTraits",
      "outputs": [
        {
          "internalType": "string",
          "name": "",
          "type": "string"
        }
      ],
      "stateMutability": "view",
      "type": "function"
    },
    {
      "inputs": [
        {
          "internalType": "uint256",
          "name": "tokenId",
          "type": "uint256"
        }
      ],
      "name": "getOccupation",
      "outputs": [
        {
          "internalType": "string",
          "name": "",
          "type": "string"
        }
      ],
      "stateMutability": "view",
      "type": "function"
    },
    {
      "inputs": [
        {
          "internalType": "uint256",
          "name": "tokenId",
          "type": "uint256"
        }
      ],
      "name": "getPositiveTraits",
      "outputs": [
        {
          "internalType": "string",
          "name": "",
          "type": "string"
        }
      ],
      "stateMutability": "view",
      "type": "function"
    },
    {
      "inputs": [],
      "name": "getTotalNFTsMintedSoFar",
      "outputs": [
        {
          "internalType": "uint256",
          "name": "",
          "type": "uint256"
        }
      ],
      "stateMutability": "view",
      "type": "function"
    },
    {
      "inputs": [
        {
          "internalType": "uint256",
          "name": "tokenId",
          "type": "uint256"
        }
      ],
      "name": "getWeapon",
      "outputs": [
        {
          "internalType": "string",
          "name": "",
          "type": "string"
        }
      ],
      "stateMutability": "view",
      "type": "function"
    },
    {
      "inputs": [
        {
          "internalType": "address",
          "name": "owner",
          "type": "address"
        },
        {
          "internalType": "address",
          "name": "operator",
          "type": "address"
        }
      ],
      "name": "isApprovedForAll",
      "outputs": [
        {
          "internalType": "bool",
          "name": "",
          "type": "bool"
        }
      ],
      "stateMutability": "view",
      "type": "function"
    },
    {
      "inputs": [],
      "name": "name",
      "outputs": [
        {
          "internalType": "string",
          "name": "",
          "type": "string"
        }
      ],
      "stateMutability": "view",
      "type": "function"
    },
    {
      "inputs": [],
      "name": "nftGeneration",
      "outputs": [],
      "stateMutability": "nonpayable",
      "type": "function"
    },
    {
      "inputs": [
        {
          "internalType": "uint256",
          "name": "tokenId",
          "type": "uint256"
        }
      ],
      "name": "ownerOf",
      "outputs": [
        {
          "internalType": "address",
          "name": "",
          "type": "address"
        }
      ],
      "stateMutability": "view",
      "type": "function"
    },
    {
      "inputs": [
        {
          "internalType": "address",
          "name": "from",
          "type": "address"
        },
        {
          "internalType": "address",
          "name": "to",
          "type": "address"
        },
        {
          "internalType": "uint256",
          "name": "tokenId",
          "type": "uint256"
        }
      ],
      "name": "safeTransferFrom",
      "outputs": [],
      "stateMutability": "nonpayable",
      "type": "function"
    },
    {
      "inputs": [
        {
          "internalType": "address",
          "name": "from",
          "type": "address"
        },
        {
          "internalType": "address",
          "name": "to",
          "type": "address"
        },
        {
          "internalType": "uint256",
          "name": "tokenId",
          "type": "uint256"
        },
        {
          "internalType": "bytes",
          "name": "_data",
          "type": "bytes"
        }
      ],
      "name": "safeTransferFrom",
      "outputs": [],
      "stateMutability": "nonpayable",
      "type": "function"
    },
    {
      "inputs": [
        {
          "internalType": "address",
          "name": "operator",
          "type": "address"
        },
        {
          "internalType": "bool",
          "name": "approved",
          "type": "bool"
        }
      ],
      "name": "setApprovalForAll",
      "outputs": [],
      "stateMutability": "nonpayable",
      "type": "function"
    },
    {
      "inputs": [
        {
          "internalType": "bytes4",
          "name": "interfaceId",
          "type": "bytes4"
        }
      ],
      "name": "supportsInterface",
      "outputs": [
        {
          "internalType": "bool",
          "name": "",
          "type": "bool"
        }
      ],
      "stateMutability": "view",
      "type": "function"
    },
    {
      "inputs": [],
      "name": "symbol",
      "outputs": [
        {
          "internalType": "string",
          "name": "",
          "type": "string"
        }
      ],
      "stateMutability": "view",
      "type": "function"
    },
    {
      "inputs": [
        {
          "internalType": "uint256",
          "name": "tokenId",
          "type": "uint256"
        }
      ],
      "name": "tokenURI",
      "outputs": [
        {
          "internalType": "string",
          "name": "",
          "type": "string"
        }
      ],
      "stateMutability": "view",
      "type": "function"
    },
    {
      "inputs": [
        {
          "internalType": "address",
          "name": "from",
          "type": "address"
        },
        {
          "internalType": "address",
          "name": "to",
          "type": "address"
        },
        {
          "internalType": "uint256",
          "name": "tokenId",
          "type": "uint256"
        }
      ],
      "name": "transferFrom",
      "outputs": [],
      "stateMutability": "nonpayable",
      "type": "function"
    }
  ],
  "bytecode": "0x608060405260405180610120016040528060fd815260200162006e8560fd91396008908051906020019062000036929190620023e0565b506040518061052001604052806040518060400160405280600a81526020017f556e656d706c6f7965640000000000000000000000000000000000000000000081525081526020016040518060400160405280600c81526020017f46697265204f666669636572000000000000000000000000000000000000000081525081526020016040518060400160405280600e81526020017f506f6c696365204f66666963657200000000000000000000000000000000000081525081526020016040518060400160405280601381526020017f436f6e737472756374696f6e20576f726b65720000000000000000000000000081525081526020016040518060400160405280600a81526020017f506f6c6974696369616e0000000000000000000000000000000000000000000081525081526020016040518060400160405280600781526020017f546561636865720000000000000000000000000000000000000000000000000081525081526020016040518060400160405280600981526020017f43617270656e746572000000000000000000000000000000000000000000000081525081526020016040518060400160405280600581526020017f546869656600000000000000000000000000000000000000000000000000000081525081526020016040518060400160405280600481526020017f436865660000000000000000000000000000000000000000000000000000000081525081526020016040518060400160405280600b81526020017f456c65637472696369616e00000000000000000000000000000000000000000081525081526020016040518060400160405280600681526020017f4661726d6572000000000000000000000000000000000000000000000000000081525081526020016040518060400160405280600681526020017f446f63746f72000000000000000000000000000000000000000000000000000081525081526020016040518060400160405280600981526020017f4669736865726d616e000000000000000000000000000000000000000000000081525081526020016040518060400160405280600e81526020017f42757267657220466c697070657200000000000000000000000000000000000081525081526020016040518060400160405280600b81526020017f546178692044726976657200000000000000000000000000000000000000000081525081526020016040518060400160405280600781526020017f53747564656e740000000000000000000000000000000000000000000000000081525081526020016040518060400160405280600881526020017f456e67696e65657200000000000000000000000000000000000000000000000081525081526020016040518060400160405280600781526020017f536f6c646965720000000000000000000000000000000000000000000000000081525081526020016040518060400160405280600681526020017f506173746f72000000000000000000000000000000000000000000000000000081525081526020016040518060400160405280600b81526020017f44727567204465616c657200000000000000000000000000000000000000000081525081526020016040518060400160405280600881526020017f596f75747562657200000000000000000000000000000000000000000000000081525081526020016040518060400160405280601681526020017f536f6369616c204a7573746963652057617272696f720000000000000000000081525081526020016040518060400160405280600581526020017f4e696e6a6100000000000000000000000000000000000000000000000000000081525081526020016040518060400160405280600781526020017f5368696e6f62690000000000000000000000000000000000000000000000000081525081526020016040518060400160405280600981526020017f43617270656e746572000000000000000000000000000000000000000000000081525081526020016040518060400160405280600681526020017f576169746572000000000000000000000000000000000000000000000000000081525081526020016040518060400160405280600d81526020017f42757320436f6e647563746f720000000000000000000000000000000000000081525081526020016040518060400160405280601481526020017f4d756c7469204c6576656c204d61726b6574657200000000000000000000000081525081526020016040518060400160405280600481526020017f4d6f6e6b0000000000000000000000000000000000000000000000000000000081525081526020016040518060400160405280600781526020017f53616d757261690000000000000000000000000000000000000000000000000081525081526020016040518060400160405280600c81526020017f464f52455820547261646572000000000000000000000000000000000000000081525081526020016040518060400160405280600c81526020017f53746f636b20547261646572000000000000000000000000000000000000000081525081526020016040518060400160405280600d81526020017f43727970746f205472616465720000000000000000000000000000000000000081525081526020016040518060400160405280600a81526020017f50726f737469747574650000000000000000000000000000000000000000000081525081526020016040518060400160405280600b81526020017f4e65777320416e63686f7200000000000000000000000000000000000000000081525081526020016040518060400160405280600e81526020017f4f6e6c792046616e73204769726c00000000000000000000000000000000000081525081526020016040518060400160405280600c81526020017f4f6e6c792046616e20477579000000000000000000000000000000000000000081525081526020016040518060400160405280600581526020017f4b616e796500000000000000000000000000000000000000000000000000000081525081526020016040518060400160405280600681526020017f5461696c6f72000000000000000000000000000000000000000000000000000081525081526020016040518060400160405280600681526020017f5361696c6f72000000000000000000000000000000000000000000000000000081525081526020016040518060400160405280600681526020017f50697261746500000000000000000000000000000000000000000000000000008152508152506009906029620009c692919062002471565b50604051806101a001604052806040518060400160405280600881526020017f4174686c6574696300000000000000000000000000000000000000000000000081525081526020016040518060400160405280600581526020017f427261766500000000000000000000000000000000000000000000000000000081525081526020016040518060400160405280600881526020017f44657874726f757300000000000000000000000000000000000000000000000081525081526020016040518060400160405280600b81526020017f46617374204865616c657200000000000000000000000000000000000000000081525081526020016040518060400160405280600c81526020017f46617374204c6561726e6572000000000000000000000000000000000000000081525081526020016040518060400160405280600b81526020017f466173742052656164657200000000000000000000000000000000000000000081525081526020016040518060400160405280600381526020017f466974000000000000000000000000000000000000000000000000000000000081525081526020016040518060400160405280600881526020017f49726f6e2047757400000000000000000000000000000000000000000000000081525081526020016040518060400160405280600c81526020017f4b65656e2048656172696e67000000000000000000000000000000000000000081525081526020016040518060400160405280600981526020017f4f7267616e697a6564000000000000000000000000000000000000000000000081525081526020016040518060400160405280600b81526020017f4f7574646f6f72736d616e00000000000000000000000000000000000000000081525081526020016040518060400160405280600681526020017f5374726f6e67000000000000000000000000000000000000000000000000000081525081526020016040518060400160405280600b81526020017f4c69676874204561746572000000000000000000000000000000000000000000815250815250600a90600d62000ce2929190620024d8565b50604051806103a001604052806040518060400160405280600b81526020017f41676f726170686f62696300000000000000000000000000000000000000000081525081526020016040518060400160405280600c81526020017f4163686c756f70686f626961000000000000000000000000000000000000000081525081526020016040518060400160405280600c81526020017f426f74616e6f70686f626961000000000000000000000000000000000000000081525081526020016040518060400160405280600b81526020017f437962657270686f62696100000000000000000000000000000000000000000081525081526020016040518060400160405280600c81526020017f44656e64726f70686f626961000000000000000000000000000000000000000081525081526020016040518060400160405280600681526020017f536d6f6b6572000000000000000000000000000000000000000000000000000081525081526020016040518060400160405280600b81526020017f487964726f70686f62696100000000000000000000000000000000000000000081525081526020016040518060400160405280600f81526020017f4d61676569726f636f70686f626961000000000000000000000000000000000081525081526020016040518060400160405280600b81526020017f4e6f63746970686f62696100000000000000000000000000000000000000000081525081526020016040518060400160405280600b81526020017f4f6d62726f70686f62696100000000000000000000000000000000000000000081525081526020016040518060400160405280600a81526020017f5079726f70686f6269610000000000000000000000000000000000000000000081525081526020016040518060400160405280600b81526020017f536f6d6e6970686f62696100000000000000000000000000000000000000000081525081526020016040518060400160405280600981526020017f5a6f6f70686f626961000000000000000000000000000000000000000000000081525081526020016040518060400160405280600d81526020017f5665726d696e6f70686f6269610000000000000000000000000000000000000081525081526020016040518060400160405280600c81526020017f456e746f6d6f70686f626961000000000000000000000000000000000000000081525081526020016040518060400160405280600a81526020017f47796e6f70686f6269610000000000000000000000000000000000000000000081525081526020016040518060400160405280600581526020017f4f6265736500000000000000000000000000000000000000000000000000000081525081526020016040518060400160405280600881526020017f436f776172646c7900000000000000000000000000000000000000000000000081525081526020016040518060400160405280600681526020017f436c756d7379000000000000000000000000000000000000000000000000000081525081526020016040518060400160405280600c81526020017f536c6f77204865616c696e67000000000000000000000000000000000000000081525081526020016040518060400160405280600581526020017f44756e636500000000000000000000000000000000000000000000000000000081525081526020016040518060400160405280600b81526020017f536c6f772052656164657200000000000000000000000000000000000000000081525081526020016040518060400160405280600581526020017f556e66697400000000000000000000000000000000000000000000000000000081525081526020016040518060400160405280600881526020017f5765616b2047757400000000000000000000000000000000000000000000000081525081526020016040518060400160405280600481526020017f446561660000000000000000000000000000000000000000000000000000000081525081526020016040518060400160405280600b81526020017f556e6f7267616e697a656400000000000000000000000000000000000000000081525081526020016040518060400160405280600581526020017f496e63656c00000000000000000000000000000000000000000000000000000081525081526020016040518060400160405280600481526020017f5765616b0000000000000000000000000000000000000000000000000000000081525081526020016040518060400160405280600b81526020017f4865617679204561746572000000000000000000000000000000000000000000815250815250600b90601d620013ae9291906200253f565b506040518061030001604052806040518060400160405280600581526020017f466973747300000000000000000000000000000000000000000000000000000081525081526020016040518060400160405280600c81526020017f4261736562616c6c20426174000000000000000000000000000000000000000081525081526020016040518060400160405280600681526020017f48616d6d6572000000000000000000000000000000000000000000000000000081525081526020016040518060400160405280600581526020017f4b6e69666500000000000000000000000000000000000000000000000000000081525081526020016040518060400160405280600681526020017f436c65766572000000000000000000000000000000000000000000000000000081525081526020016040518060400160405280600781526020017f486174636865740000000000000000000000000000000000000000000000000081525081526020016040518060400160405280600681526020017f4b6174616e61000000000000000000000000000000000000000000000000000081525081526020016040518060400160405280600881526020017f476c6f636b20313700000000000000000000000000000000000000000000000081525081526020016040518060400160405280600681526020017f4d6163203130000000000000000000000000000000000000000000000000000081525081526020016040518060400160405280600581526020017f4d3139313100000000000000000000000000000000000000000000000000000081525081526020016040518060400160405280600381526020017f557a69000000000000000000000000000000000000000000000000000000000081525081526020016040518060400160405280600381526020017f4d5035000000000000000000000000000000000000000000000000000000000081525081526020016040518060400160405280600681526020017f554d50203435000000000000000000000000000000000000000000000000000081525081526020016040518060400160405280601181526020017f5361776e2d4f66662053686f757467756e00000000000000000000000000000081525081526020016040518060400160405280600f81526020017f416d62726f73652053686f7467756e000000000000000000000000000000000081525081526020016040518060400160405280600881526020017f536169676120313200000000000000000000000000000000000000000000000081525081526020016040518060400160405280601081526020017f53706f72742053686f74205269666c650000000000000000000000000000000081525081526020016040518060400160405280600a81526020017f41575045522048616e640000000000000000000000000000000000000000000081525081526020016040518060400160405280600381526020017f4d3136000000000000000000000000000000000000000000000000000000000081525081526020016040518060400160405280600581526020017f414b2d343700000000000000000000000000000000000000000000000000000081525081526020016040518060400160405280600381526020017f4d3630000000000000000000000000000000000000000000000000000000000081525081526020016040518060400160405280600c81526020017f466c616d657468726f776572000000000000000000000000000000000000000081525081526020016040518060400160405280600381526020017f525047000000000000000000000000000000000000000000000000000000000081525081526020016040518060400160405280601081526020017f4772656e616465204c61756e6368657200000000000000000000000000000000815250815250600c90601862001953929190620025a6565b50604051806102a001604052806040518060400160405280600c81526020017f42726f6b656e204e65727665000000000000000000000000000000000000000081525081526020016040518060400160405280600d81526020017f536c69707065727920536b696e0000000000000000000000000000000000000081525081526020016040518060400160405280600981526020017f456c656d656e74616c000000000000000000000000000000000000000000000081525081526020016040518060400160405280600781526020017f4d696e696f6e730000000000000000000000000000000000000000000000000081525081526020016040518060400160405280600781526020017f4e6f78696f75730000000000000000000000000000000000000000000000000081525081526020016040518060400160405280600681526020017f54686f726e73000000000000000000000000000000000000000000000000000081525081526020016040518060400160405280600a81526020017f53746f6e6520536b696e0000000000000000000000000000000000000000000081525081526020016040518060400160405280600981526020017f466f75722d45796573000000000000000000000000000000000000000000000081525081526020016040518060400160405280600981526020017f466f75722d41726d73000000000000000000000000000000000000000000000081525081526020016040518060400160405280600781526020017f436861726765720000000000000000000000000000000000000000000000000081525081526020016040518060400160405280601781526020017f53746f6d61636820416369642050726f706f6c74696f6e00000000000000000081525081526020016040518060400160405280600781526020017f4265727365726b0000000000000000000000000000000000000000000000000081525081526020016040518060400160405280600b81526020017f42756c6c657470726f6f6600000000000000000000000000000000000000000081525081526020016040518060400160405280600881526020017f476c7574746f6e7900000000000000000000000000000000000000000000000081525081526020016040518060400160405280600981526020017f4865617470726f6f66000000000000000000000000000000000000000000000081525081526020016040518060400160405280600a81526020017f49726f6e2042617262730000000000000000000000000000000000000000000081525081526020016040518060400160405280600881526020017f4c6576697461746500000000000000000000000000000000000000000000000081525081526020016040518060400160405280600981526020017f526f636b2048656164000000000000000000000000000000000000000000000081525081526020016040518060400160405280600a81526020017f5374726f6e67204a61770000000000000000000000000000000000000000000081525081526020016040518060400160405280600b81526020017f546f75676820436c61777300000000000000000000000000000000000000000081525081526020016040518060400160405280600b81526020017f566f6c74204162736f7262000000000000000000000000000000000000000000815250815250600d90601562001e479291906200260d565b506040518061020001604052806040518060400160405280600881526020017f416e61726368696300000000000000000000000000000000000000000000000081525081526020016040518060400160405280600b81526020017f526164696f61637469766500000000000000000000000000000000000000000081525081526020016040518060400160405280600781526020017f4e75636c6561720000000000000000000000000000000000000000000000000081525081526020016040518060400160405280600d81526020017f506f6c79636172626f6e6174650000000000000000000000000000000000000081525081526020016040518060400160405280600e81526020017f486561742d526573697374616e7400000000000000000000000000000000000081525081526020016040518060400160405280600a81526020017f496d70657276696f75730000000000000000000000000000000000000000000081525081526020016040518060400160405280600a81526020017f5265696e666f726365640000000000000000000000000000000000000000000081525081526020016040518060400160405280600881526020017f53686f636b696e6700000000000000000000000000000000000000000000000081525081526020016040518060400160405280600a81526020017f556c7472616c696768740000000000000000000000000000000000000000000081525081526020016040518060400160405280600b81526020017f4f7665726368617267656400000000000000000000000000000000000000000081525081526020016040518060400160405280600881526020017f537974686574696300000000000000000000000000000000000000000000000081525081526020016040518060400160405280600681526020017f556e64656164000000000000000000000000000000000000000000000000000081525081526020016040518060400160405280600781526020017f44656d6f6e69630000000000000000000000000000000000000000000000000081525081526020016040518060400160405280600581526020017f466572616c00000000000000000000000000000000000000000000000000000081525081526020016040518060400160405280600781526020017f4275726e696e670000000000000000000000000000000000000000000000000081525081526020016040518060400160405280600881526020017f467265657a696e67000000000000000000000000000000000000000000000000815250815250600e9060106200221492919062002674565b503480156200222257600080fd5b506040518060400160405280600881526020017f5375727669766f720000000000000000000000000000000000000000000000008152506040518060400160405280600781526020017f53555256495645000000000000000000000000000000000000000000000000008152508160009080519060200190620022a7929190620023e0565b508060019080519060200190620022c0929190620023e0565b5050506200230e6040518060400160405280601581526020017f536d61727420636f6e74727461637420686572652e00000000000000000000008152506200231460201b620019c51760201c565b62002895565b620023b4816040516024016200232b9190620027a9565b6040516020818303038152906040527f41304fac000000000000000000000000000000000000000000000000000000007bffffffffffffffffffffffffffffffffffffffffffffffffffffffff19166020820180517bffffffffffffffffffffffffffffffffffffffffffffffffffffffff8381831617835250505050620023b760201b60201c565b50565b60008151905060006a636f6e736f6c652e6c6f679050602083016000808483855afa5050505050565b828054620023ee906200281f565b90600052602060002090601f0160209004810192826200241257600085556200245e565b82601f106200242d57805160ff19168380011785556200245e565b828001600101855582156200245e579182015b828111156200245d57825182559160200191906001019062002440565b5b5090506200246d9190620026db565b5090565b828054828255906000526020600020908101928215620024c5579160200282015b82811115620024c4578251829080519060200190620024b3929190620023e0565b509160200191906001019062002492565b5b509050620024d49190620026fa565b5090565b8280548282559060005260206000209081019282156200252c579160200282015b828111156200252b5782518290805190602001906200251a929190620023e0565b5091602001919060010190620024f9565b5b5090506200253b9190620026fa565b5090565b82805482825590600052602060002090810192821562002593579160200282015b828111156200259257825182908051906020019062002581929190620023e0565b509160200191906001019062002560565b5b509050620025a29190620026fa565b5090565b828054828255906000526020600020908101928215620025fa579160200282015b82811115620025f9578251829080519060200190620025e8929190620023e0565b5091602001919060010190620025c7565b5b509050620026099190620026fa565b5090565b82805482825590600052602060002090810192821562002661579160200282015b82811115620026605782518290805190602001906200264f929190620023e0565b50916020019190600101906200262e565b5b509050620026709190620026fa565b5090565b828054828255906000526020600020908101928215620026c8579160200282015b82811115620026c7578251829080519060200190620026b6929190620023e0565b509160200191906001019062002695565b5b509050620026d79190620026fa565b5090565b5b80821115620026f6576000816000905550600101620026dc565b5090565b5b808211156200271e576000818162002714919062002722565b50600101620026fb565b5090565b50805462002730906200281f565b6000825580601f1062002744575062002765565b601f016020900490600052602060002090810190620027649190620026db565b5b50565b60006200277582620027cd565b620027818185620027d8565b935062002793818560208601620027e9565b6200279e8162002884565b840191505092915050565b60006020820190508181036000830152620027c5818462002768565b905092915050565b600081519050919050565b600082825260208201905092915050565b60005b8381101562002809578082015181840152602081019050620027ec565b8381111562002819576000848401525b50505050565b600060028204905060018216806200283857607f821691505b602082108114156200284f576200284e62002855565b5b50919050565b7f4e487b7100000000000000000000000000000000000000000000000000000000600052602260045260246000fd5b6000601f19601f8301169050919050565b6145e080620028a56000396000f3fe608060405234801561001057600080fd5b50600436106101375760003560e01c80636352211e116100b8578063a86d31011161007c578063a86d310114610372578063b88d4fde146103a2578063c35e73eb146103be578063c3b86ac0146103c8578063c87b56dd146103f8578063e985e9c51461042857610137565b80636352211e146102a857806370a08231146102d857806395d89b41146103085780639e41b73f14610326578063a22cb4651461035657610137565b806315b2d0f6116100ff57806315b2d0f6146101f457806323b872dd146102245780632c6eb0ce14610240578063379607f51461027057806342842e0e1461028c57610137565b806301ffc9a71461013c578063060475901461016c57806306fdde031461018a578063081812fc146101a8578063095ea7b3146101d8575b600080fd5b61015660048036038101906101519190613115565b610458565b6040516101639190613dd5565b60405180910390f35b61017461053a565b6040516101819190614030565b60405180910390f35b610192610550565b60405161019f9190613df0565b60405180910390f35b6101c260048036038101906101bd9190613167565b6105e2565b6040516101cf9190613d45565b60405180910390f35b6101f260048036038101906101ed91906130d9565b610667565b005b61020e60048036038101906102099190613167565b61077f565b60405161021b9190613df0565b60405180910390f35b61023e60048036038101906102399190612fd3565b610899565b005b61025a60048036038101906102559190613167565b6108f9565b6040516102679190613df0565b60405180910390f35b61028a60048036038101906102859190613167565b610a13565b005b6102a660048036038101906102a19190612fd3565b610a77565b005b6102c260048036038101906102bd9190613167565b610a97565b6040516102cf9190613d45565b60405180910390f35b6102f260048036038101906102ed9190612f6e565b610b49565b6040516102ff9190614030565b60405180910390f35b610310610c01565b60405161031d9190613df0565b60405180910390f35b610340600480360381019061033b9190613167565b610c93565b60405161034d9190613df0565b60405180910390f35b610370600480360381019061036b919061309d565b610dad565b005b61038c60048036038101906103879190613167565b610dc3565b6040516103999190613df0565b60405180910390f35b6103bc60048036038101906103b79190613022565b610edd565b005b6103c6610f3f565b005b6103e260048036038101906103dd9190613167565b610fd2565b6040516103ef9190613df0565b60405180910390f35b610412600480360381019061040d9190613167565b6110ec565b60405161041f9190613df0565b60405180910390f35b610442600480360381019061043d9190612f97565b611931565b60405161044f9190613dd5565b60405180910390f35b60007f80ac58cd000000000000000000000000000000000000000000000000000000007bffffffffffffffffffffffffffffffffffffffffffffffffffffffff1916827bffffffffffffffffffffffffffffffffffffffffffffffffffffffff1916148061052357507f5b5e139f000000000000000000000000000000000000000000000000000000007bffffffffffffffffffffffffffffffffffffffffffffffffffffffff1916827bffffffffffffffffffffffffffffffffffffffffffffffffffffffff1916145b80610533575061053282611a5e565b5b9050919050565b6000806105476007611ac8565b90508091505090565b60606000805461055f906142cf565b80601f016020809104026020016040519081016040528092919081815260200182805461058b906142cf565b80156105d85780601f106105ad576101008083540402835291602001916105d8565b820191906000526020600020905b8154815290600101906020018083116105bb57829003601f168201915b5050505050905090565b60006105ed82611ad6565b61062c576040517f08c379a000000000000000000000000000000000000000000000000000000000815260040161062390613f90565b60405180910390fd5b6004600083815260200190815260200160002060009054906101000a900473ffffffffffffffffffffffffffffffffffffffff169050919050565b600061067282610a97565b90508073ffffffffffffffffffffffffffffffffffffffff168373ffffffffffffffffffffffffffffffffffffffff1614156106e3576040517f08c379a00000000000000000000000000000000000000000000000000000000081526004016106da90613ff0565b60405180910390fd5b8073ffffffffffffffffffffffffffffffffffffffff16610702611b42565b73ffffffffffffffffffffffffffffffffffffffff16148061073157506107308161072b611b42565b611931565b5b610770576040517f08c379a000000000000000000000000000000000000000000000000000000000815260040161076790613ef0565b60405180910390fd5b61077a8383611b4a565b505050565b6060610892826040518060400160405280600a81526020017f4f434355504154494f4e000000000000000000000000000000000000000000008152506009805480602002602001604051908101604052809291908181526020016000905b828210156108895783829060005260206000200180546107fc906142cf565b80601f0160208091040260200160405190810160405280929190818152602001828054610828906142cf565b80156108755780601f1061084a57610100808354040283529160200191610875565b820191906000526020600020905b81548152906001019060200180831161085857829003601f168201915b5050505050815260200190600101906107dd565b50505050611c03565b9050919050565b6108aa6108a4611b42565b82611c98565b6108e9576040517f08c379a00000000000000000000000000000000000000000000000000000000081526004016108e090614010565b60405180910390fd5b6108f4838383611d76565b505050565b6060610a0c826040518060400160405280600781526020017f2b54524149545300000000000000000000000000000000000000000000000000815250600a805480602002602001604051908101604052809291908181526020016000905b82821015610a03578382906000526020600020018054610976906142cf565b80601f01602080910402602001604051908101604052809291908181526020018280546109a2906142cf565b80156109ef5780601f106109c4576101008083540402835291602001916109ef565b820191906000526020600020905b8154815290600101906020018083116109d257829003601f168201915b505050505081526020019060010190610957565b50505050611c03565b9050919050565b600081118015610a24575061271081105b610a63576040517f08c379a0000000000000000000000000000000000000000000000000000000008152600401610a5a90613fb0565b60405180910390fd5b610a74610a6e611b42565b82611fd2565b50565b610a9283838360405180602001604052806000815250610edd565b505050565b6000806002600084815260200190815260200160002060009054906101000a900473ffffffffffffffffffffffffffffffffffffffff169050600073ffffffffffffffffffffffffffffffffffffffff168173ffffffffffffffffffffffffffffffffffffffff161415610b40576040517f08c379a0000000000000000000000000000000000000000000000000000000008152600401610b3790613f30565b60405180910390fd5b80915050919050565b60008073ffffffffffffffffffffffffffffffffffffffff168273ffffffffffffffffffffffffffffffffffffffff161415610bba576040517f08c379a0000000000000000000000000000000000000000000000000000000008152600401610bb190613f10565b60405180910390fd5b600360008373ffffffffffffffffffffffffffffffffffffffff1673ffffffffffffffffffffffffffffffffffffffff168152602001908152602001600020549050919050565b606060018054610c10906142cf565b80601f0160208091040260200160405190810160405280929190818152602001828054610c3c906142cf565b8015610c895780601f10610c5e57610100808354040283529160200191610c89565b820191906000526020600020905b815481529060010190602001808311610c6c57829003601f168201915b5050505050905090565b6060610da6826040518060400160405280600681526020017f574541504f4e0000000000000000000000000000000000000000000000000000815250600c805480602002602001604051908101604052809291908181526020016000905b82821015610d9d578382906000526020600020018054610d10906142cf565b80601f0160208091040260200160405190810160405280929190818152602001828054610d3c906142cf565b8015610d895780601f10610d5e57610100808354040283529160200191610d89565b820191906000526020600020905b815481529060010190602001808311610d6c57829003601f168201915b505050505081526020019060010190610cf1565b50505050611ff0565b9050919050565b610dbf610db8611b42565b838361231a565b5050565b6060610ed6826040518060400160405280600781526020017f2d54524149545300000000000000000000000000000000000000000000000000815250600b805480602002602001604051908101604052809291908181526020016000905b82821015610ecd578382906000526020600020018054610e40906142cf565b80601f0160208091040260200160405190810160405280929190818152602001828054610e6c906142cf565b8015610eb95780601f10610e8e57610100808354040283529160200191610eb9565b820191906000526020600020905b815481529060010190602001808311610e9c57829003601f168201915b505050505081526020019060010190610e21565b50505050611c03565b9050919050565b610eee610ee8611b42565b83611c98565b610f2d576040517f08c379a0000000000000000000000000000000000000000000000000000000008152600401610f2490614010565b60405180910390fd5b610f3984848484612487565b50505050565b6000610f4b6007611ac8565b9050610f573382611fd2565b610f6981610f64836110ec565b6124e3565b610f736007612557565b610f966040518060600160405280602581526020016144cd60259139823361256d565b7febb98688741ffa4c7589bf325de30cf7becb63de567842e1ccdb6cb949fdc82c3382604051610fc7929190613dac565b60405180910390a150565b60606110e5826040518060400160405280600981526020017f4d55544154494f4e530000000000000000000000000000000000000000000000815250600d805480602002602001604051908101604052809291908181526020016000905b828210156110dc57838290600052602060002001805461104f906142cf565b80601f016020809104026020016040519081016040528092919081815260200182805461107b906142cf565b80156110c85780601f1061109d576101008083540402835291602001916110c8565b820191906000526020600020905b8154815290600101906020018083116110ab57829003601f168201915b505050505081526020019060010190611030565b50505050611c03565b9050919050565b60606110f6612dab565b60088054611103906142cf565b80601f016020809104026020016040519081016040528092919081815260200182805461112f906142cf565b801561117c5780601f106111515761010080835404028352916020019161117c565b820191906000526020600020905b81548152906001019060200180831161115f57829003601f168201915b5050505050816000600b81106111bb577f4e487b7100000000000000000000000000000000000000000000000000000000600052603260045260246000fd5b60200201819052506111cc8361077f565b816001600b8110611206577f4e487b7100000000000000000000000000000000000000000000000000000000600052603260045260246000fd5b602002018190525060405180606001604052806028815260200161458360289139816002600b8110611261577f4e487b7100000000000000000000000000000000000000000000000000000000600052603260045260246000fd5b6020020181905250611272836108f9565b816003600b81106112ac577f4e487b7100000000000000000000000000000000000000000000000000000000600052603260045260246000fd5b60200201819052506040518060600160405280602881526020016144a560289139816004600b8110611307577f4e487b7100000000000000000000000000000000000000000000000000000000600052603260045260246000fd5b602002018190525061131883610dc3565b816005600b8110611352577f4e487b7100000000000000000000000000000000000000000000000000000000600052603260045260246000fd5b60200201819052506040518060600160405280602881526020016144f260289139816006600b81106113ad577f4e487b7100000000000000000000000000000000000000000000000000000000600052603260045260246000fd5b60200201819052506113be83610c93565b816007600b81106113f8577f4e487b7100000000000000000000000000000000000000000000000000000000600052603260045260246000fd5b602002018190525060405180606001604052806029815260200161451a60299139816008600b8110611453577f4e487b7100000000000000000000000000000000000000000000000000000000600052603260045260246000fd5b602002018190525061146483610fd2565b816009600b811061149e577f4e487b7100000000000000000000000000000000000000000000000000000000600052603260045260246000fd5b60200201819052506040518060400160405280600d81526020017f3c2f746578743e3c2f7376673e0000000000000000000000000000000000000081525081600a600b8110611516577f4e487b7100000000000000000000000000000000000000000000000000000000600052603260045260246000fd5b60200201819052506000816000600b811061155a577f4e487b7100000000000000000000000000000000000000000000000000000000600052603260045260246000fd5b6020020151826001600b8110611599577f4e487b7100000000000000000000000000000000000000000000000000000000600052603260045260246000fd5b6020020151836002600b81106115d8577f4e487b7100000000000000000000000000000000000000000000000000000000600052603260045260246000fd5b6020020151846003600b8110611617577f4e487b7100000000000000000000000000000000000000000000000000000000600052603260045260246000fd5b6020020151856004600b8110611656577f4e487b7100000000000000000000000000000000000000000000000000000000600052603260045260246000fd5b6020020151866005600b8110611695577f4e487b7100000000000000000000000000000000000000000000000000000000600052603260045260246000fd5b60200201516040516020016116af96959493929190613ba0565b604051602081830303815290604052905080826006600b81106116fb577f4e487b7100000000000000000000000000000000000000000000000000000000600052603260045260246000fd5b6020020151836007600b811061173a577f4e487b7100000000000000000000000000000000000000000000000000000000600052603260045260246000fd5b6020020151846008600b8110611779577f4e487b7100000000000000000000000000000000000000000000000000000000600052603260045260246000fd5b6020020151856009600b81106117b8577f4e487b7100000000000000000000000000000000000000000000000000000000600052603260045260246000fd5b602002015186600a600b81106117f7577f4e487b7100000000000000000000000000000000000000000000000000000000600052603260045260246000fd5b602002015160405160200161181196959493929190613ba0565b6040516020818303038152906040529050600061185e6118308661260c565b611839846127b9565b60405160200161184a929190613d00565b6040516020818303038152906040526127b9565b9050806040516020016118719190613cde565b60405160208183030381529060405291506118c06040518060400160405280601581526020017f0a2d2d2d2d2d2d2d2d2d2d2d2d2d2d2d2d2d2d2d2d00000000000000000000008152506119c5565b6118e8826040516020016118d49190613c27565b6040516020818303038152906040526119c5565b6119266040518060400160405280601581526020017f2d2d2d2d2d2d2d2d2d2d2d2d2d2d2d2d2d2d2d2d0a00000000000000000000008152506119c5565b819350505050919050565b6000600560008473ffffffffffffffffffffffffffffffffffffffff1673ffffffffffffffffffffffffffffffffffffffff16815260200190815260200160002060008373ffffffffffffffffffffffffffffffffffffffff1673ffffffffffffffffffffffffffffffffffffffff16815260200190815260200160002060009054906101000a900460ff16905092915050565b611a5b816040516024016119d99190613df0565b6040516020818303038152906040527f41304fac000000000000000000000000000000000000000000000000000000007bffffffffffffffffffffffffffffffffffffffffffffffffffffffff19166020820180517bffffffffffffffffffffffffffffffffffffffffffffffffffffffff8381831617835250505050612977565b50565b60007f01ffc9a7000000000000000000000000000000000000000000000000000000007bffffffffffffffffffffffffffffffffffffffffffffffffffffffff1916827bffffffffffffffffffffffffffffffffffffffffffffffffffffffff1916149050919050565b600081600001549050919050565b60008073ffffffffffffffffffffffffffffffffffffffff166002600084815260200190815260200160002060009054906101000a900473ffffffffffffffffffffffffffffffffffffffff1673ffffffffffffffffffffffffffffffffffffffff1614159050919050565b600033905090565b816004600083815260200190815260200160002060006101000a81548173ffffffffffffffffffffffffffffffffffffffff021916908373ffffffffffffffffffffffffffffffffffffffff160217905550808273ffffffffffffffffffffffffffffffffffffffff16611bbd83610a97565b73ffffffffffffffffffffffffffffffffffffffff167f8c5be1e5ebec7d5bd14f71427d1e84f3dd0314c0f7b2291e5b200ac8c7c3b92560405160405180910390a45050565b60606000611c3984611c148761260c565b604051602001611c25929190613b7c565b6040516020818303038152906040526129a0565b9050600083845183611c4b919061434a565b81518110611c82577f4e487b7100000000000000000000000000000000000000000000000000000000600052603260045260246000fd5b6020026020010151905080925050509392505050565b6000611ca382611ad6565b611ce2576040517f08c379a0000000000000000000000000000000000000000000000000000000008152600401611cd990613ed0565b60405180910390fd5b6000611ced83610a97565b90508073ffffffffffffffffffffffffffffffffffffffff168473ffffffffffffffffffffffffffffffffffffffff161480611d5c57508373ffffffffffffffffffffffffffffffffffffffff16611d44846105e2565b73ffffffffffffffffffffffffffffffffffffffff16145b80611d6d5750611d6c8185611931565b5b91505092915050565b8273ffffffffffffffffffffffffffffffffffffffff16611d9682610a97565b73ffffffffffffffffffffffffffffffffffffffff1614611dec576040517f08c379a0000000000000000000000000000000000000000000000000000000008152600401611de390613fd0565b60405180910390fd5b600073ffffffffffffffffffffffffffffffffffffffff168273ffffffffffffffffffffffffffffffffffffffff161415611e5c576040517f08c379a0000000000000000000000000000000000000000000000000000000008152600401611e5390613e90565b60405180910390fd5b611e678383836129d3565b611e72600082611b4a565b6001600360008573ffffffffffffffffffffffffffffffffffffffff1673ffffffffffffffffffffffffffffffffffffffff1681526020019081526020016000206000828254611ec291906141e5565b925050819055506001600360008473ffffffffffffffffffffffffffffffffffffffff1673ffffffffffffffffffffffffffffffffffffffff1681526020019081526020016000206000828254611f199190614104565b92505081905550816002600083815260200190815260200160002060006101000a81548173ffffffffffffffffffffffffffffffffffffffff021916908373ffffffffffffffffffffffffffffffffffffffff160217905550808273ffffffffffffffffffffffffffffffffffffffff168473ffffffffffffffffffffffffffffffffffffffff167fddf252ad1be2c89b69c2b068fc378daa952ba7f163c4a11628f55a4df523b3ef60405160405180910390a4505050565b611fec8282604051806020016040528060008152506129d8565b5050565b60606000612026846120018761260c565b604051602001612012929190613b7c565b6040516020818303038152906040526129a0565b9050600083845183612038919061434a565b8151811061206f577f4e487b7100000000000000000000000000000000000000000000000000000000600052603260045260246000fd5b602002602001015190506000601583612088919061434a565b9050600e81111561210a57600e8080549050846120a5919061434a565b815481106120dc577f4e487b7100000000000000000000000000000000000000000000000000000000600052603260045260246000fd5b90600052602060002001826040516020016120f8929190613bf8565b60405160208183030381529060405291505b6013811061230d5761211a612dd3565b600e80805490508561212c919061434a565b81548110612163577f4e487b7100000000000000000000000000000000000000000000000000000000600052603260045260246000fd5b906000526020600020018054612178906142cf565b80601f01602080910402602001604051908101604052809291908181526020018280546121a4906142cf565b80156121f15780601f106121c6576101008083540402835291602001916121f1565b820191906000526020600020905b8154815290600101906020018083116121d457829003601f168201915b505050505081600060018110612230577f4e487b7100000000000000000000000000000000000000000000000000000000600052603260045260246000fd5b602002018190525060138214156122a8578060006001811061227b577f4e487b7100000000000000000000000000000000000000000000000000000000600052603260045260246000fd5b602002015183604051602001612292929190613c49565b604051602081830303815290604052925061230b565b806000600181106122e2577f4e487b7100000000000000000000000000000000000000000000000000000000600052603260045260246000fd5b6020020151836040516020016122f9929190613c8e565b60405160208183030381529060405292505b505b8193505050509392505050565b8173ffffffffffffffffffffffffffffffffffffffff168373ffffffffffffffffffffffffffffffffffffffff161415612389576040517f08c379a000000000000000000000000000000000000000000000000000000000815260040161238090613eb0565b60405180910390fd5b80600560008573ffffffffffffffffffffffffffffffffffffffff1673ffffffffffffffffffffffffffffffffffffffff16815260200190815260200160002060008473ffffffffffffffffffffffffffffffffffffffff1673ffffffffffffffffffffffffffffffffffffffff16815260200190815260200160002060006101000a81548160ff0219169083151502179055508173ffffffffffffffffffffffffffffffffffffffff168373ffffffffffffffffffffffffffffffffffffffff167f17307eab39ab6107e8899845ad3d59bd9653f200f220920489ca2b5937696c318360405161247a9190613dd5565b60405180910390a3505050565b612492848484611d76565b61249e84848484612a33565b6124dd576040517f08c379a00000000000000000000000000000000000000000000000000000000081526004016124d490613e50565b60405180910390fd5b50505050565b6124ec82611ad6565b61252b576040517f08c379a000000000000000000000000000000000000000000000000000000000815260040161252290613f50565b60405180910390fd5b80600660008481526020019081526020016000209080519060200190612552929190612dfa565b505050565b6001816000016000828254019250508190555050565b61260783838360405160240161258593929190613e12565b6040516020818303038152906040527fe3849f79000000000000000000000000000000000000000000000000000000007bffffffffffffffffffffffffffffffffffffffffffffffffffffffff19166020820180517bffffffffffffffffffffffffffffffffffffffffffffffffffffffff8381831617835250505050612977565b505050565b60606000821415612654576040518060400160405280600181526020017f300000000000000000000000000000000000000000000000000000000000000081525090506127b4565b600082905060005b6000821461268657808061266f90614301565b915050600a8261267f919061415a565b915061265c565b60008167ffffffffffffffff8111156126c8577f4e487b7100000000000000000000000000000000000000000000000000000000600052604160045260246000fd5b6040519080825280601f01601f1916602001820160405280156126fa5781602001600182028036833780820191505090505b5090505b600085146127ad5760018261271391906141e5565b9150600a85612722919061434a565b603061272e9190614104565b60f81b81838151811061276a577f4e487b7100000000000000000000000000000000000000000000000000000000600052603260045260246000fd5b60200101907effffffffffffffffffffffffffffffffffffffffffffffffffffffffffffff1916908160001a905350600a856127a6919061415a565b94506126fe565b8093505050505b919050565b606060008251905060008114156127e25760405180602001604052806000815250915050612972565b600060036002836127f39190614104565b6127fd919061415a565b6004612809919061418b565b9050600060208261281a9190614104565b67ffffffffffffffff811115612859577f4e487b7100000000000000000000000000000000000000000000000000000000600052604160045260246000fd5b6040519080825280601f01601f19166020018201604052801561288b5781602001600182028036833780820191505090505b5090506000604051806060016040528060408152602001614543604091399050600181016020830160005b8681101561292f5760038101905062ffffff818a015116603f8160121c168401518060081b905060ff603f83600c1c1686015116810190508060081b905060ff603f8360061c1686015116810190508060081b905060ff603f831686015116810190508060e01b905080845260048401935050506128b6565b506003860660018114612949576002811461295957612964565b613d3d60f01b6002830352612964565b603d60f81b60018303525b508484525050819450505050505b919050565b60008151905060006a636f6e736f6c652e6c6f679050602083016000808483855afa5050505050565b6000816040516020016129b39190613b65565b6040516020818303038152906040528051906020012060001c9050919050565b505050565b6129e28383612bca565b6129ef6000848484612a33565b612a2e576040517f08c379a0000000000000000000000000000000000000000000000000000000008152600401612a2590613e50565b60405180910390fd5b505050565b6000612a548473ffffffffffffffffffffffffffffffffffffffff16612d98565b15612bbd578373ffffffffffffffffffffffffffffffffffffffff1663150b7a02612a7d611b42565b8786866040518563ffffffff1660e01b8152600401612a9f9493929190613d60565b602060405180830381600087803b158015612ab957600080fd5b505af1925050508015612aea57506040513d601f19601f82011682018060405250810190612ae7919061313e565b60015b612b6d573d8060008114612b1a576040519150601f19603f3d011682016040523d82523d6000602084013e612b1f565b606091505b50600081511415612b65576040517f08c379a0000000000000000000000000000000000000000000000000000000008152600401612b5c90613e50565b60405180910390fd5b805181602001fd5b63150b7a0260e01b7bffffffffffffffffffffffffffffffffffffffffffffffffffffffff1916817bffffffffffffffffffffffffffffffffffffffffffffffffffffffff191614915050612bc2565b600190505b949350505050565b600073ffffffffffffffffffffffffffffffffffffffff168273ffffffffffffffffffffffffffffffffffffffff161415612c3a576040517f08c379a0000000000000000000000000000000000000000000000000000000008152600401612c3190613f70565b60405180910390fd5b612c4381611ad6565b15612c83576040517f08c379a0000000000000000000000000000000000000000000000000000000008152600401612c7a90613e70565b60405180910390fd5b612c8f600083836129d3565b6001600360008473ffffffffffffffffffffffffffffffffffffffff1673ffffffffffffffffffffffffffffffffffffffff1681526020019081526020016000206000828254612cdf9190614104565b92505081905550816002600083815260200190815260200160002060006101000a81548173ffffffffffffffffffffffffffffffffffffffff021916908373ffffffffffffffffffffffffffffffffffffffff160217905550808273ffffffffffffffffffffffffffffffffffffffff16600073ffffffffffffffffffffffffffffffffffffffff167fddf252ad1be2c89b69c2b068fc378daa952ba7f163c4a11628f55a4df523b3ef60405160405180910390a45050565b600080823b905060008111915050919050565b604051806101600160405280600b905b6060815260200190600190039081612dbb5790505090565b60405180602001604052806001905b6060815260200190600190039081612de25790505090565b828054612e06906142cf565b90600052602060002090601f016020900481019282612e285760008555612e6f565b82601f10612e4157805160ff1916838001178555612e6f565b82800160010185558215612e6f579182015b82811115612e6e578251825591602001919060010190612e53565b5b509050612e7c9190612e80565b5090565b5b80821115612e99576000816000905550600101612e81565b5090565b6000612eb0612eab8461407c565b61404b565b905082815260208101848484011115612ec857600080fd5b612ed384828561428d565b509392505050565b600081359050612eea81614448565b92915050565b600081359050612eff8161445f565b92915050565b600081359050612f1481614476565b92915050565b600081519050612f2981614476565b92915050565b600082601f830112612f4057600080fd5b8135612f50848260208601612e9d565b91505092915050565b600081359050612f688161448d565b92915050565b600060208284031215612f8057600080fd5b6000612f8e84828501612edb565b91505092915050565b60008060408385031215612faa57600080fd5b6000612fb885828601612edb565b9250506020612fc985828601612edb565b9150509250929050565b600080600060608486031215612fe857600080fd5b6000612ff686828701612edb565b935050602061300786828701612edb565b925050604061301886828701612f59565b9150509250925092565b6000806000806080858703121561303857600080fd5b600061304687828801612edb565b945050602061305787828801612edb565b935050604061306887828801612f59565b925050606085013567ffffffffffffffff81111561308557600080fd5b61309187828801612f2f565b91505092959194509250565b600080604083850312156130b057600080fd5b60006130be85828601612edb565b92505060206130cf85828601612ef0565b9150509250929050565b600080604083850312156130ec57600080fd5b60006130fa85828601612edb565b925050602061310b85828601612f59565b9150509250929050565b60006020828403121561312757600080fd5b600061313584828501612f05565b91505092915050565b60006020828403121561315057600080fd5b600061315e84828501612f1a565b91505092915050565b60006020828403121561317957600080fd5b600061318784828501612f59565b91505092915050565b61319981614219565b82525050565b6131a88161422b565b82525050565b60006131b9826140c1565b6131c381856140d7565b93506131d381856020860161429c565b6131dc81614437565b840191505092915050565b60006131f2826140cc565b6131fc81856140e8565b935061320c81856020860161429c565b61321581614437565b840191505092915050565b600061322b826140cc565b61323581856140f9565b935061324581856020860161429c565b80840191505092915050565b6000815461325e816142cf565b61326881866140f9565b945060018216600081146132835760018114613294576132c7565b60ff198316865281860193506132c7565b61329d856140ac565b60005b838110156132bf578154818901526001820191506020810190506132a0565b838801955050505b50505092915050565b60006132dd6025836140f9565b91507f68747470733a2f2f6e6674707265766965772e30786465762e636f6465732f3f60008301527f636f64653d0000000000000000000000000000000000000000000000000000006020830152602582019050919050565b60006133436032836140e8565b91507f4552433732313a207472616e7366657220746f206e6f6e20455243373231526560008301527f63656976657220696d706c656d656e74657200000000000000000000000000006020830152604082019050919050565b60006133a9601c836140e8565b91507f4552433732313a20746f6b656e20616c7265616479206d696e746564000000006000830152602082019050919050565b60006133e96024836140e8565b91507f4552433732313a207472616e7366657220746f20746865207a65726f2061646460008301527f72657373000000000000000000000000000000000000000000000000000000006020830152604082019050919050565b600061344f6019836140e8565b91507f4552433732313a20617070726f766520746f2063616c6c6572000000000000006000830152602082019050919050565b600061348f6002836140f9565b91507f22200000000000000000000000000000000000000000000000000000000000006000830152600282019050919050565b60006134cf602c836140e8565b91507f4552433732313a206f70657261746f7220717565727920666f72206e6f6e657860008301527f697374656e7420746f6b656e00000000000000000000000000000000000000006020830152604082019050919050565b60006135356001836140f9565b91507f20000000000000000000000000000000000000000000000000000000000000006000830152600182019050919050565b60006135756038836140e8565b91507f4552433732313a20617070726f76652063616c6c6572206973206e6f74206f7760008301527f6e6572206e6f7220617070726f76656420666f7220616c6c00000000000000006020830152604082019050919050565b60006135db6001836140f9565b91507f22000000000000000000000000000000000000000000000000000000000000006000830152600182019050919050565b600061361b602a836140e8565b91507f4552433732313a2062616c616e636520717565727920666f7220746865207a6560008301527f726f2061646472657373000000000000000000000000000000000000000000006020830152604082019050919050565b60006136816029836140e8565b91507f4552433732313a206f776e657220717565727920666f72206e6f6e657869737460008301527f656e7420746f6b656e00000000000000000000000000000000000000000000006020830152604082019050919050565b60006136e7602e836140e8565b91507f45524337323155524953746f726167653a2055524920736574206f66206e6f6e60008301527f6578697374656e7420746f6b656e0000000000000000000000000000000000006020830152604082019050919050565b600061374d6002836140f9565b91507f227d0000000000000000000000000000000000000000000000000000000000006000830152600282019050919050565b600061378d6020836140e8565b91507f4552433732313a206d696e7420746f20746865207a65726f20616464726573736000830152602082019050919050565b60006137cd602c836140e8565b91507f4552433732313a20617070726f76656420717565727920666f72206e6f6e657860008301527f697374656e7420746f6b656e00000000000000000000000000000000000000006020830152604082019050919050565b60006138336010836140e8565b91507f546f6b656e20494420696e76616c6964000000000000000000000000000000006000830152602082019050919050565b60006138736029836140e8565b91507f4552433732313a207472616e73666572206f6620746f6b656e2074686174206960008301527f73206e6f74206f776e00000000000000000000000000000000000000000000006020830152604082019050919050565b60006138d96021836140e8565b91507f4552433732313a20617070726f76616c20746f2063757272656e74206f776e6560008301527f72000000000000000000000000000000000000000000000000000000000000006020830152604082019050919050565b600061393f601d836140f9565b91507f646174613a6170706c69636174696f6e2f6a736f6e3b6261736536342c0000006000830152601d82019050919050565b600061397f6003836140f9565b91507f202b3100000000000000000000000000000000000000000000000000000000006000830152600382019050919050565b60006139bf6031836140e8565b91507f4552433732313a207472616e736665722063616c6c6572206973206e6f74206f60008301527f776e6572206e6f7220617070726f7665640000000000000000000000000000006020830152604082019050919050565b6000613a256018836140f9565b91507f7b226e616d65223a2022546865205375727669766f72202300000000000000006000830152601882019050919050565b6000613a6560a8836140f9565b91507f222c20226465736372697074696f6e223a2022546865205375727669766f722060008301527f69732072616e646f6d697a656420776561706f6e732c20706572736f6e616c6960208301527f7479207472616974732c206f636375706174696f6e20616e64206d757461746960408301527f6f6e2067656e65726174656420616e642073746f726564206f6e20636861696e60608301527f2e222c2022696d616765223a2022646174613a696d6167652f7376672b786d6c60808301527f3b6261736536342c00000000000000000000000000000000000000000000000060a083015260a882019050919050565b613b5f81614283565b82525050565b6000613b718284613220565b915081905092915050565b6000613b888285613220565b9150613b948284613220565b91508190509392505050565b6000613bac8289613220565b9150613bb88288613220565b9150613bc48287613220565b9150613bd08286613220565b9150613bdc8285613220565b9150613be88284613220565b9150819050979650505050505050565b6000613c048285613251565b9150613c0f82613528565b9150613c1b8284613220565b91508190509392505050565b6000613c32826132d0565b9150613c3e8284613220565b915081905092915050565b6000613c54826135ce565b9150613c608285613220565b9150613c6b82613482565b9150613c7682613528565b9150613c828284613220565b91508190509392505050565b6000613c99826135ce565b9150613ca58285613220565b9150613cb082613482565b9150613cbb82613528565b9150613cc78284613220565b9150613cd282613972565b91508190509392505050565b6000613ce982613932565b9150613cf58284613220565b915081905092915050565b6000613d0b82613a18565b9150613d178285613220565b9150613d2282613a58565b9150613d2e8284613220565b9150613d3982613740565b91508190509392505050565b6000602082019050613d5a6000830184613190565b92915050565b6000608082019050613d756000830187613190565b613d826020830186613190565b613d8f6040830185613b56565b8181036060830152613da181846131ae565b905095945050505050565b6000604082019050613dc16000830185613190565b613dce6020830184613b56565b9392505050565b6000602082019050613dea600083018461319f565b92915050565b60006020820190508181036000830152613e0a81846131e7565b905092915050565b60006060820190508181036000830152613e2c81866131e7565b9050613e3b6020830185613b56565b613e486040830184613190565b949350505050565b60006020820190508181036000830152613e6981613336565b9050919050565b60006020820190508181036000830152613e898161339c565b9050919050565b60006020820190508181036000830152613ea9816133dc565b9050919050565b60006020820190508181036000830152613ec981613442565b9050919050565b60006020820190508181036000830152613ee9816134c2565b9050919050565b60006020820190508181036000830152613f0981613568565b9050919050565b60006020820190508181036000830152613f298161360e565b9050919050565b60006020820190508181036000830152613f4981613674565b9050919050565b60006020820190508181036000830152613f69816136da565b9050919050565b60006020820190508181036000830152613f8981613780565b9050919050565b60006020820190508181036000830152613fa9816137c0565b9050919050565b60006020820190508181036000830152613fc981613826565b9050919050565b60006020820190508181036000830152613fe981613866565b9050919050565b60006020820190508181036000830152614009816138cc565b9050919050565b60006020820190508181036000830152614029816139b2565b9050919050565b60006020820190506140456000830184613b56565b92915050565b6000604051905081810181811067ffffffffffffffff8211171561407257614071614408565b5b8060405250919050565b600067ffffffffffffffff82111561409757614096614408565b5b601f19601f8301169050602081019050919050565b60008190508160005260206000209050919050565b600081519050919050565b600081519050919050565b600082825260208201905092915050565b600082825260208201905092915050565b600081905092915050565b600061410f82614283565b915061411a83614283565b9250827fffffffffffffffffffffffffffffffffffffffffffffffffffffffffffffffff0382111561414f5761414e61437b565b5b828201905092915050565b600061416582614283565b915061417083614283565b9250826141805761417f6143aa565b5b828204905092915050565b600061419682614283565b91506141a183614283565b9250817fffffffffffffffffffffffffffffffffffffffffffffffffffffffffffffffff04831182151516156141da576141d961437b565b5b828202905092915050565b60006141f082614283565b91506141fb83614283565b92508282101561420e5761420d61437b565b5b828203905092915050565b600061422482614263565b9050919050565b60008115159050919050565b60007fffffffff0000000000000000000000000000000000000000000000000000000082169050919050565b600073ffffffffffffffffffffffffffffffffffffffff82169050919050565b6000819050919050565b82818337600083830152505050565b60005b838110156142ba57808201518184015260208101905061429f565b838111156142c9576000848401525b50505050565b600060028204905060018216806142e757607f821691505b602082108114156142fb576142fa6143d9565b5b50919050565b600061430c82614283565b91507fffffffffffffffffffffffffffffffffffffffffffffffffffffffffffffffff82141561433f5761433e61437b565b5b600182019050919050565b600061435582614283565b915061436083614283565b9250826143705761436f6143aa565b5b828206905092915050565b7f4e487b7100000000000000000000000000000000000000000000000000000000600052601160045260246000fd5b7f4e487b7100000000000000000000000000000000000000000000000000000000600052601260045260246000fd5b7f4e487b7100000000000000000000000000000000000000000000000000000000600052602260045260246000fd5b7f4e487b7100000000000000000000000000000000000000000000000000000000600052604160045260246000fd5b6000601f19601f8301169050919050565b61445181614219565b811461445c57600080fd5b50565b6144688161422b565b811461447357600080fd5b50565b61447f81614237565b811461448a57600080fd5b50565b61449681614283565b81146144a157600080fd5b5056fe3c2f746578743e3c7465787420783d2231302220793d2236302220636c6173733d2262617365223e416e204e465420772f20494420257320686173206265656e206d696e74656420746f2025733c2f746578743e3c7465787420783d2231302220793d2238302220636c6173733d2262617365223e3c2f746578743e3c7465787420783d2231302220793d223130302220636c6173733d2262617365223e4142434445464748494a4b4c4d4e4f505152535455565758595a6162636465666768696a6b6c6d6e6f707172737475767778797a303132333435363738392b2f3c2f746578743e3c7465787420783d2231302220793d2234302220636c6173733d2262617365223ea264697066735822122000bdd05623a3aea9eeec4f0c89f1144f1fc20626a53e1a3aee226029cca219f864736f6c634300080000333c73766720786d6c6e733d22687474703a2f2f7777772e77332e6f72672f323030302f73766722207072657365727665417370656374526174696f3d22784d696e594d696e206d656574222076696577426f783d223020302033353020333530223e3c7374796c653e2e62617365207b2066696c6c3a2077686974653b20666f6e742d66616d696c793a2073657269663b20666f6e742d73697a653a20313470783b207d3c2f7374796c653e3c726563742077696474683d223130302522206865696768743d2231303025222066696c6c3d22626c61636b22202f3e3c7465787420783d2231302220793d2232302220636c6173733d2262617365223e",
  "linkReferences": {},
  "deployedLinkReferences": {}
}